{
  "_format": "hh-sol-artifact-1",
  "contractName": "MusicRegistry",
  "sourceName": "contracts/MusicRegistry.sol",
  "abi": [
    {
      "inputs": [],
      "stateMutability": "nonpayable",
      "type": "constructor"
    },
    {
      "anonymous": false,
      "inputs": [
        {
          "indexed": true,
          "internalType": "bytes32",
          "name": "evidenceHash",
          "type": "bytes32"
        },
        {
          "indexed": true,
          "internalType": "bytes32",
          "name": "workHash",
          "type": "bytes32"
        },
        {
          "indexed": false,
          "internalType": "string",
          "name": "evidenceCID",
          "type": "string"
        },
        {
          "indexed": false,
          "internalType": "uint256",
          "name": "timestamp",
          "type": "uint256"
        }
      ],
      "name": "InfringementCertified",
      "type": "event"
    },
    {
      "anonymous": false,
      "inputs": [
        {
          "indexed": true,
          "internalType": "bytes32",
          "name": "workHash",
          "type": "bytes32"
        },
        {
          "indexed": true,
          "internalType": "address",
          "name": "beneficiary",
          "type": "address"
        },
        {
          "indexed": false,
          "internalType": "uint256",
          "name": "amount",
          "type": "uint256"
        },
        {
          "indexed": false,
          "internalType": "uint256",
          "name": "timestamp",
          "type": "uint256"
        }
      ],
      "name": "PaymentSimulated",
      "type": "event"
    },
    {
      "anonymous": false,
      "inputs": [
        {
          "indexed": true,
          "internalType": "bytes32",
          "name": "workHash",
          "type": "bytes32"
        },
        {
          "indexed": false,
          "internalType": "string",
          "name": "cid",
          "type": "string"
        },
        {
          "indexed": false,
          "internalType": "address[]",
          "name": "recipients",
          "type": "address[]"
        },
        {
          "indexed": false,
          "internalType": "uint256[]",
          "name": "shares",
          "type": "uint256[]"
        },
        {
          "indexed": false,
          "internalType": "uint256",
          "name": "timestamp",
          "type": "uint256"
        }
      ],
      "name": "WorkRegistered",
      "type": "event"
    },
    {
      "inputs": [
        {
          "internalType": "string",
          "name": "evidenceCID",
          "type": "string"
        },
        {
          "internalType": "bytes32",
          "name": "workHash",
          "type": "bytes32"
        }
      ],
      "name": "certifyInfringement",
      "outputs": [
        {
          "internalType": "bytes32",
          "name": "evidenceHash",
          "type": "bytes32"
        }
      ],
      "stateMutability": "nonpayable",
      "type": "function"
    },
    {
      "inputs": [
        {
          "internalType": "bytes32",
          "name": "evidenceHash",
          "type": "bytes32"
        }
      ],
      "name": "getInfringement",
      "outputs": [
        {
          "internalType": "string",
          "name": "evidenceCID",
          "type": "string"
        },
        {
          "internalType": "bytes32",
          "name": "workHash",
          "type": "bytes32"
        },
        {
          "internalType": "uint256",
          "name": "certifiedAt",
          "type": "uint256"
        }
      ],
      "stateMutability": "view",
      "type": "function"
    },
    {
      "inputs": [
        {
          "internalType": "bytes32",
          "name": "workHash",
          "type": "bytes32"
        }
      ],
      "name": "getWork",
      "outputs": [
        {
          "internalType": "string",
          "name": "cid",
          "type": "string"
        },
        {
          "internalType": "address[]",
          "name": "recipients",
          "type": "address[]"
        },
        {
          "internalType": "uint256[]",
          "name": "shares",
          "type": "uint256[]"
        },
        {
          "internalType": "uint256",
          "name": "registeredAt",
          "type": "uint256"
        }
      ],
      "stateMutability": "view",
      "type": "function"
    },
    {
      "inputs": [
        {
          "internalType": "bytes32",
          "name": "workHash",
          "type": "bytes32"
        }
      ],
      "name": "isWorkRegistered",
      "outputs": [
        {
          "internalType": "bool",
          "name": "",
          "type": "bool"
        }
      ],
      "stateMutability": "view",
      "type": "function"
    },
    {
      "inputs": [],
      "name": "owner",
      "outputs": [
        {
          "internalType": "address",
          "name": "",
          "type": "address"
        }
      ],
      "stateMutability": "view",
      "type": "function"
    },
    {
      "inputs": [
        {
          "internalType": "bytes32",
          "name": "workHash",
          "type": "bytes32"
        },
        {
          "internalType": "string",
          "name": "cid",
          "type": "string"
        },
        {
          "internalType": "address[]",
          "name": "recipients",
          "type": "address[]"
        },
        {
          "internalType": "uint256[]",
          "name": "shares",
          "type": "uint256[]"
        }
      ],
      "name": "registerWork",
      "outputs": [],
      "stateMutability": "nonpayable",
      "type": "function"
    },
    {
      "inputs": [
        {
          "internalType": "bytes32",
          "name": "workHash",
          "type": "bytes32"
        },
        {
          "internalType": "uint256",
          "name": "totalAmount",
          "type": "uint256"
        }
      ],
      "name": "simulateRoyaltyPayment",
      "outputs": [],
      "stateMutability": "nonpayable",
      "type": "function"
    }
  ],
  "bytecode": "0x608060405234801561001057600080fd5b50600280546001600160a01b031916331790556112ee806100326000396000f3fe608060405234801561001057600080fd5b506004361061007d5760003560e01c8063799b1bd21161005b578063799b1bd2146101015780638da5cb5b1461011657806395a022cd14610141578063a4e47a261461015457600080fd5b80630d5b17041461008257806330266537146100a85780635b421e1a146100cb575b600080fd5b610095610090366004610beb565b610176565b6040519081526020015b60405180910390f35b6100bb6100b6366004610c37565b6102f8565b60405161009f9493929190610c96565b6100f16100d9366004610c37565b60009081526020819052604090206004015460ff1690565b604051901515815260200161009f565b61011461010f366004610d7b565b61049f565b005b600254610129906001600160a01b031681565b6040516001600160a01b03909116815260200161009f565b61011461014f366004610e1f565b61090f565b610167610162366004610c37565b610a87565b60405161009f93929190610e41565b600081815260208190526040812060040154829060ff166101b25760405162461bcd60e51b81526004016101a990610e66565b60405180910390fd5b836102095760405162461bcd60e51b815260206004820152602160248201527f4d7573696352656769737472793a20656d7074792065766964656e63652043496044820152601160fa1b60648201526084016101a9565b8484844233604051602001610222959493929190610ea8565b60408051601f1981840301815282825280516020918201206080601f890183900490920284018201909252606083018781529194508291908890889081908501838280828437600092018290525093855250505060208083018790524260409384015285825260019052208151819061029b9082610f78565b50602082015181600101556040820151816002015590505082827f2430fab8792a7eb17642e901c793b33843175b7f9e8b5c07447199717995da448787426040516102e893929190611061565b60405180910390a3509392505050565b6000818152602081905260408120600401546060918291829190859060ff166103335760405162461bcd60e51b81526004016101a990610e66565b60008681526020819052604090206003810154815482916001830191600284019190849061036090610eef565b80601f016020809104026020016040519081016040528092919081815260200182805461038c90610eef565b80156103d95780601f106103ae576101008083540402835291602001916103d9565b820191906000526020600020905b8154815290600101906020018083116103bc57829003601f168201915b505050505093508280548060200260200160405190810160405280929190818152602001828054801561043557602002820191906000526020600020905b81546001600160a01b03168152600190910190602001808311610417575b505050505092508180548060200260200160405190810160405280929190818152602001828054801561048757602002820191906000526020600020905b815481526020019060010190808311610473575b50505050509150955095509550955050509193509193565b600087815260208190526040902060040154879060ff16156105125760405162461bcd60e51b815260206004820152602660248201527f4d7573696352656769737472793a20776f726b20616c726561647920726567696044820152651cdd195c995960d21b60648201526084016101a9565b8561055f5760405162461bcd60e51b815260206004820152601860248201527f4d7573696352656769737472793a20656d70747920434944000000000000000060448201526064016101a9565b836105ba5760405162461bcd60e51b815260206004820152602560248201527f4d7573696352656769737472793a206e6f20726563697069656e74732070726f6044820152641d9a59195960da1b60648201526084016101a9565b8382146106265760405162461bcd60e51b815260206004820152603460248201527f4d7573696352656769737472793a20726563697069656e747320616e642073686044820152730c2e4cae640d8cadccee8d040dad2e6dac2e8c6d60631b60648201526084016101a9565b6000805b8381101561077557600087878381811061064657610646611085565b905060200201602081019061065b91906110b7565b6001600160a01b0316036106c15760405162461bcd60e51b815260206004820152602760248201527f4d7573696352656769737472793a207a65726f2061646472657373206e6f7420604482015266185b1b1bddd95960ca1b60648201526084016101a9565b60008585838181106106d5576106d5611085565b905060200201351161073d5760405162461bcd60e51b815260206004820152602b60248201527f4d7573696352656769737472793a207368617265206d7573742062652067726560448201526a061746572207468616e20360ac1b60648201526084016101a9565b84848281811061074f5761074f611085565b905060200201358261076191906110ef565b91508061076d81611108565b91505061062a565b50806064146107dc5760405162461bcd60e51b815260206004820152602d60248201527f4d7573696352656769737472793a20736861726573206d7573742073756d207460448201526c06f2065786163746c792031303609c1b60648201526084016101a9565b6000898152602081905260409020806107f6898b83611121565b5042600382015560048101805460ff1916600117905560005b868110156108be578160010188888381811061082d5761082d611085565b905060200201602081019061084291906110b7565b81546001810183556000928352602090922090910180546001600160a01b0319166001600160a01b039092169190911790556002820186868381811061088a5761088a611085565b83546001810185556000948552602094859020919094029290920135919092015550806108b681611108565b91505061080f565b50897f9a3e73b2bd8214d0a8ce3480e4fb35119232778dd268d8df8eb122cd7d2f3bea8a8a8a8a8a8a426040516108fb97969594939291906111e1565b60405180910390a250505050505050505050565b600082815260208190526040902060040154829060ff166109425760405162461bcd60e51b81526004016101a990610e66565b600082116109ac5760405162461bcd60e51b815260206004820152603160248201527f4d7573696352656769737472793a20746f74616c416d6f756e74206d75737420604482015270062652067726561746572207468616e203607c1b60648201526084016101a9565b6000838152602081905260408120905b6001820154811015610a8057600060648360020183815481106109e1576109e1611085565b9060005260206000200154866109f7919061127f565b610a019190611296565b9050826001018281548110610a1857610a18611085565b600091825260209182902001546040805184815242938101939093526001600160a01b039091169188917f52cc12ac2b9ab6059658acae4bb8e9fd99c4b53452b5e2c266ee1775aec19c3f910160405180910390a35080610a7881611108565b9150506109bc565b5050505050565b60008181526001602052604081206002810154606092918291610afa5760405162461bcd60e51b815260206004820152602560248201527f4d7573696352656769737472793a20696e6672696e67656d656e74206e6f7420604482015264199bdd5b9960da1b60648201526084016101a9565b8060000181600101548260020154828054610b1490610eef565b80601f0160208091040260200160405190810160405280929190818152602001828054610b4090610eef565b8015610b8d5780601f10610b6257610100808354040283529160200191610b8d565b820191906000526020600020905b815481529060010190602001808311610b7057829003601f168201915b50505050509250935093509350509193909250565b60008083601f840112610bb457600080fd5b50813567ffffffffffffffff811115610bcc57600080fd5b602083019150836020828501011115610be457600080fd5b9250929050565b600080600060408486031215610c0057600080fd5b833567ffffffffffffffff811115610c1757600080fd5b610c2386828701610ba2565b909790965060209590950135949350505050565b600060208284031215610c4957600080fd5b5035919050565b6000815180845260005b81811015610c7657602081850181015186830182015201610c5a565b506000602082860101526020601f19601f83011685010191505092915050565b608081526000610ca96080830187610c50565b82810360208481019190915286518083528782019282019060005b81811015610ce95784516001600160a01b031683529383019391830191600101610cc4565b50508481036040860152865180825290820192508187019060005b81811015610d2057825185529383019391830191600101610d04565b5050505060609290920192909252949350505050565b60008083601f840112610d4857600080fd5b50813567ffffffffffffffff811115610d6057600080fd5b6020830191508360208260051b8501011115610be457600080fd5b60008060008060008060006080888a031215610d9657600080fd5b87359650602088013567ffffffffffffffff80821115610db557600080fd5b610dc18b838c01610ba2565b909850965060408a0135915080821115610dda57600080fd5b610de68b838c01610d36565b909650945060608a0135915080821115610dff57600080fd5b50610e0c8a828b01610d36565b989b979a50959850939692959293505050565b60008060408385031215610e3257600080fd5b50508035926020909101359150565b606081526000610e546060830186610c50565b60208301949094525060400152919050565b60208082526022908201527f4d7573696352656769737472793a20776f726b206e6f74207265676973746572604082015261195960f21b606082015260800190565b84868237909301918252602082015260609190911b6bffffffffffffffffffffffff19166040820152605401919050565b634e487b7160e01b600052604160045260246000fd5b600181811c90821680610f0357607f821691505b602082108103610f2357634e487b7160e01b600052602260045260246000fd5b50919050565b601f821115610f7357600081815260208120601f850160051c81016020861015610f505750805b601f850160051c820191505b81811015610f6f57828155600101610f5c565b5050505b505050565b815167ffffffffffffffff811115610f9257610f92610ed9565b610fa681610fa08454610eef565b84610f29565b602080601f831160018114610fdb5760008415610fc35750858301515b600019600386901b1c1916600185901b178555610f6f565b600085815260208120601f198616915b8281101561100a57888601518255948401946001909101908401610feb565b50858210156110285787850151600019600388901b60f8161c191681555b5050505050600190811b01905550565b81835281816020850137506000828201602090810191909152601f909101601f19169091010190565b604081526000611075604083018587611038565b9050826020830152949350505050565b634e487b7160e01b600052603260045260246000fd5b80356001600160a01b03811681146110b257600080fd5b919050565b6000602082840312156110c957600080fd5b6110d28261109b565b9392505050565b634e487b7160e01b600052601160045260246000fd5b80820180821115611102576111026110d9565b92915050565b60006001820161111a5761111a6110d9565b5060010190565b67ffffffffffffffff83111561113957611139610ed9565b61114d836111478354610eef565b83610f29565b6000601f84116001811461118157600085156111695750838201355b600019600387901b1c1916600186901b178355610a80565b600083815260209020601f19861690835b828110156111b25786850135825560209485019460019092019101611192565b50868210156111cf5760001960f88860031b161c19848701351681555b505060018560011b0183555050505050565b6080815260006111f560808301898b611038565b8281036020848101919091528782528891810160005b89811015611237576001600160a01b036112248561109b565b168252928201929082019060010161120b565b5084810360408601528681526001600160fb1b0387111561125757600080fd5b8660051b92508288838301378183820101935050505082606083015298975050505050505050565b8082028115828204841417611102576111026110d9565b6000826112b357634e487b7160e01b600052601260045260246000fd5b50049056fea2646970667358221220f4e18cc39e3cdf30848dda8fcf2068ca5e2e9e70ac74488d3e82894ff9c5b29364736f6c63430008140033",
  "linkReferences": {},
  "deployedLinkReferences": {}
}