{"contracts/MusicRegistry.sol":{"MusicRegistry":{"abi":[{"inputs":[],"stateMutability":"nonpayable","type":"constructor"},{"anonymous":false,"inputs":[{"indexed":true,"internalType":"bytes32","name":"evidenceHash","type":"bytes32"},{"indexed":true,"internalType":"bytes32","name":"workHash","type":"bytes32"},{"indexed":false,"internalType":"string","name":"evidenceCID","type":"string"},{"indexed":false,"internalType":"uint256","name":"timestamp","type":"uint256"}],"name":"InfringementCertified","type":"event"},{"anonymous":false,"inputs":[{"indexed":true,"internalType":"bytes32","name":"workHash","type":"bytes32"},{"indexed":true,"internalType":"address","name":"beneficiary","type":"address"},{"indexed":false,"internalType":"uint256","name":"amount","type":"uint256"},{"indexed":false,"internalType":"uint256","name":"timestamp","type":"uint256"}],"name":"PaymentSimulated","type":"event"},{"anonymous":false,"inputs":[{"indexed":true,"internalType":"bytes32","name":"workHash","type":"bytes32"},{"indexed":false,"internalType":"string","name":"cid","type":"string"},{"indexed":false,"internalType":"address[]","name":"recipients","type":"address[]"},{"indexed":false,"internalType":"uint256[]","name":"shares","type":"uint256[]"},{"indexed":false,"internalType":"uint256","name":"timestamp","type":"uint256"}],"name":"WorkRegistered","type":"event"},{"inputs":[{"internalType":"string","name":"evidenceCID","type":"string"},{"internalType":"bytes32","name":"workHash","type":"bytes32"}],"name":"certifyInfringement","outputs":[{"internalType":"bytes32","name":"evidenceHash","type":"bytes32"}],"stateMutability":"nonpayable","type":"function"},{"inputs":[{"internalType":"bytes32","name":"evidenceHash","type":"bytes32"}],"name":"getInfringement","outputs":[{"internalType":"string","name":"evidenceCID","type":"string"},{"internalType":"bytes32","name":"workHash","type":"bytes32"},{"internalType":"uint256","name":"certifiedAt","type":"uint256"}],"stateMutability":"view","type":"function"},{"inputs":[{"internalType":"bytes32","name":"workHash","type":"bytes32"}],"name":"getWork","outputs":[{"internalType":"string","name":"cid","type":"string"},{"internalType":"address[]","name":"recipients","type":"address[]"},{"internalType":"uint256[]","name":"shares","type":"uint256[]"},{"internalType":"uint256","name":"registeredAt","type":"uint256"}],"stateMutability":"view","type":"function"},{"inputs":[{"internalType":"bytes32","name":"workHash","type":"bytes32"}],"name":"isWorkRegistered","outputs":[{"internalType":"bool","name":"","type":"bool"}],"stateMutability":"view","type":"function"},{"inputs":[],"name":"owner","outputs":[{"internalType":"address","name":"","type":"address"}],"stateMutability":"view","type":"function"},{"inputs":[{"internalType":"bytes32","name":"workHash","type":"bytes32"},{"internalType":"string","name":"cid","type":"string"},{"internalType":"address[]","name":"recipients","type":"address[]"},{"internalType":"uint256[]","name":"shares","type":"uint256[]"}],"name":"registerWork","outputs":[],"stateMutability":"nonpayable","type":"function"},{"inputs":[{"internalType":"bytes32","name":"workHash","type":"bytes32"},{"internalType":"uint256","name":"totalAmount","type":"uint256"}],"name":"simulateRoyaltyPayment","outputs":[],"stateMutability":"nonpayable","type":"function"}],"evm":{"bytecode":{"linkReferences":{},"object":"608060405234801561001057600080fd5b50600280546001600160a01b031916331790556112ee806100326000396000f3fe608060405234801561001057600080fd5b506004361061007d5760003560e01c8063799b1bd21161005b578063799b1bd2146101015780638da5cb5b1461011657806395a022cd14610141578063a4e47a261461015457600080fd5b80630d5b17041461008257806330266537146100a85780635b421e1a146100cb575b600080fd5b610095610090366004610beb565b610176565b6040519081526020015b60405180910390f35b6100bb6100b6366004610c37565b6102f8565b60405161009f9493929190610c96565b6100f16100d9366004610c37565b60009081526020819052604090206004015460ff1690565b604051901515815260200161009f565b61011461010f366004610d7b565b61049f565b005b600254610129906001600160a01b031681565b6040516001600160a01b03909116815260200161009f565b61011461014f366004610e1f565b61090f565b610167610162366004610c37565b610a87565b60405161009f93929190610e41565b600081815260208190526040812060040154829060ff166101b25760405162461bcd60e51b81526004016101a990610e66565b60405180910390fd5b836102095760405162461bcd60e51b815260206004820152602160248201527f4d7573696352656769737472793a20656d7074792065766964656e63652043496044820152601160fa1b60648201526084016101a9565b8484844233604051602001610222959493929190610ea8565b60408051601f1981840301815282825280516020918201206080601f890183900490920284018201909252606083018781529194508291908890889081908501838280828437600092018290525093855250505060208083018790524260409384015285825260019052208151819061029b9082610f78565b50602082015181600101556040820151816002015590505082827f2430fab8792a7eb17642e901c793b33843175b7f9e8b5c07447199717995da448787426040516102e893929190611061565b60405180910390a3509392505050565b6000818152602081905260408120600401546060918291829190859060ff166103335760405162461bcd60e51b81526004016101a990610e66565b60008681526020819052604090206003810154815482916001830191600284019190849061036090610eef565b80601f016020809104026020016040519081016040528092919081815260200182805461038c90610eef565b80156103d95780601f106103ae576101008083540402835291602001916103d9565b820191906000526020600020905b8154815290600101906020018083116103bc57829003601f168201915b505050505093508280548060200260200160405190810160405280929190818152602001828054801561043557602002820191906000526020600020905b81546001600160a01b03168152600190910190602001808311610417575b505050505092508180548060200260200160405190810160405280929190818152602001828054801561048757602002820191906000526020600020905b815481526020019060010190808311610473575b50505050509150955095509550955050509193509193565b600087815260208190526040902060040154879060ff16156105125760405162461bcd60e51b815260206004820152602660248201527f4d7573696352656769737472793a20776f726b20616c726561647920726567696044820152651cdd195c995960d21b60648201526084016101a9565b8561055f5760405162461bcd60e51b815260206004820152601860248201527f4d7573696352656769737472793a20656d70747920434944000000000000000060448201526064016101a9565b836105ba5760405162461bcd60e51b815260206004820152602560248201527f4d7573696352656769737472793a206e6f20726563697069656e74732070726f6044820152641d9a59195960da1b60648201526084016101a9565b8382146106265760405162461bcd60e51b815260206004820152603460248201527f4d7573696352656769737472793a20726563697069656e747320616e642073686044820152730c2e4cae640d8cadccee8d040dad2e6dac2e8c6d60631b60648201526084016101a9565b6000805b8381101561077557600087878381811061064657610646611085565b905060200201602081019061065b91906110b7565b6001600160a01b0316036106c15760405162461bcd60e51b815260206004820152602760248201527f4d7573696352656769737472793a207a65726f2061646472657373206e6f7420604482015266185b1b1bddd95960ca1b60648201526084016101a9565b60008585838181106106d5576106d5611085565b905060200201351161073d5760405162461bcd60e51b815260206004820152602b60248201527f4d7573696352656769737472793a207368617265206d7573742062652067726560448201526a061746572207468616e20360ac1b60648201526084016101a9565b84848281811061074f5761074f611085565b905060200201358261076191906110ef565b91508061076d81611108565b91505061062a565b50806064146107dc5760405162461bcd60e51b815260206004820152602d60248201527f4d7573696352656769737472793a20736861726573206d7573742073756d207460448201526c06f2065786163746c792031303609c1b60648201526084016101a9565b6000898152602081905260409020806107f6898b83611121565b5042600382015560048101805460ff1916600117905560005b868110156108be578160010188888381811061082d5761082d611085565b905060200201602081019061084291906110b7565b81546001810183556000928352602090922090910180546001600160a01b0319166001600160a01b039092169190911790556002820186868381811061088a5761088a611085565b83546001810185556000948552602094859020919094029290920135919092015550806108b681611108565b91505061080f565b50897f9a3e73b2bd8214d0a8ce3480e4fb35119232778dd268d8df8eb122cd7d2f3bea8a8a8a8a8a8a426040516108fb97969594939291906111e1565b60405180910390a250505050505050505050565b600082815260208190526040902060040154829060ff166109425760405162461bcd60e51b81526004016101a990610e66565b600082116109ac5760405162461bcd60e51b815260206004820152603160248201527f4d7573696352656769737472793a20746f74616c416d6f756e74206d75737420604482015270062652067726561746572207468616e203607c1b60648201526084016101a9565b6000838152602081905260408120905b6001820154811015610a8057600060648360020183815481106109e1576109e1611085565b9060005260206000200154866109f7919061127f565b610a019190611296565b9050826001018281548110610a1857610a18611085565b600091825260209182902001546040805184815242938101939093526001600160a01b039091169188917f52cc12ac2b9ab6059658acae4bb8e9fd99c4b53452b5e2c266ee1775aec19c3f910160405180910390a35080610a7881611108565b9150506109bc565b5050505050565b60008181526001602052604081206002810154606092918291610afa5760405162461bcd60e51b815260206004820152602560248201527f4d7573696352656769737472793a20696e6672696e67656d656e74206e6f7420604482015264199bdd5b9960da1b60648201526084016101a9565b8060000181600101548260020154828054610b1490610eef565b80601f0160208091040260200160405190810160405280929190818152602001828054610b4090610eef565b8015610b8d5780601f10610b6257610100808354040283529160200191610b8d565b820191906000526020600020905b815481529060010190602001808311610b7057829003601f168201915b50505050509250935093509350509193909250565b60008083601f840112610bb457600080fd5b50813567ffffffffffffffff811115610bcc57600080fd5b602083019150836020828501011115610be457600080fd5b9250929050565b600080600060408486031215610c0057600080fd5b833567ffffffffffffffff811115610c1757600080fd5b610c2386828701610ba2565b909790965060209590950135949350505050565b600060208284031215610c4957600080fd5b5035919050565b6000815180845260005b81811015610c7657602081850181015186830182015201610c5a565b506000602082860101526020601f19601f83011685010191505092915050565b608081526000610ca96080830187610c50565b82810360208481019190915286518083528782019282019060005b81811015610ce95784516001600160a01b031683529383019391830191600101610cc4565b50508481036040860152865180825290820192508187019060005b81811015610d2057825185529383019391830191600101610d04565b5050505060609290920192909252949350505050565b60008083601f840112610d4857600080fd5b50813567ffffffffffffffff811115610d6057600080fd5b6020830191508360208260051b8501011115610be457600080fd5b60008060008060008060006080888a031215610d9657600080fd5b87359650602088013567ffffffffffffffff80821115610db557600080fd5b610dc18b838c01610ba2565b909850965060408a0135915080821115610dda57600080fd5b610de68b838c01610d36565b909650945060608a0135915080821115610dff57600080fd5b50610e0c8a828b01610d36565b989b979a50959850939692959293505050565b60008060408385031215610e3257600080fd5b50508035926020909101359150565b606081526000610e546060830186610c50565b60208301949094525060400152919050565b60208082526022908201527f4d7573696352656769737472793a20776f726b206e6f74207265676973746572604082015261195960f21b606082015260800190565b84868237909301918252602082015260609190911b6bffffffffffffffffffffffff19166040820152605401919050565b634e487b7160e01b600052604160045260246000fd5b600181811c90821680610f0357607f821691505b602082108103610f2357634e487b7160e01b600052602260045260246000fd5b50919050565b601f821115610f7357600081815260208120601f850160051c81016020861015610f505750805b601f850160051c820191505b81811015610f6f57828155600101610f5c565b5050505b505050565b815167ffffffffffffffff811115610f9257610f92610ed9565b610fa681610fa08454610eef565b84610f29565b602080601f831160018114610fdb5760008415610fc35750858301515b600019600386901b1c1916600185901b178555610f6f565b600085815260208120601f198616915b8281101561100a57888601518255948401946001909101908401610feb565b50858210156110285787850151600019600388901b60f8161c191681555b5050505050600190811b01905550565b81835281816020850137506000828201602090810191909152601f909101601f19169091010190565b604081526000611075604083018587611038565b9050826020830152949350505050565b634e487b7160e01b600052603260045260246000fd5b80356001600160a01b03811681146110b257600080fd5b919050565b6000602082840312156110c957600080fd5b6110d28261109b565b9392505050565b634e487b7160e01b600052601160045260246000fd5b80820180821115611102576111026110d9565b92915050565b60006001820161111a5761111a6110d9565b5060010190565b67ffffffffffffffff83111561113957611139610ed9565b61114d836111478354610eef565b83610f29565b6000601f84116001811461118157600085156111695750838201355b600019600387901b1c1916600186901b178355610a80565b600083815260209020601f19861690835b828110156111b25786850135825560209485019460019092019101611192565b50868210156111cf5760001960f88860031b161c19848701351681555b505060018560011b0183555050505050565b6080815260006111f560808301898b611038565b8281036020848101919091528782528891810160005b89811015611237576001600160a01b036112248561109b565b168252928201929082019060010161120b565b5084810360408601528681526001600160fb1b0387111561125757600080fd5b8660051b92508288838301378183820101935050505082606083015298975050505050505050565b8082028115828204841417611102576111026110d9565b6000826112b357634e487b7160e01b600052601260045260246000fd5b50049056fea2646970667358221220f4e18cc39e3cdf30848dda8fcf2068ca5e2e9e70ac74488d3e82894ff9c5b29364736f6c63430008140033","opcodes":"PUSH1 0x80 PUSH1 0x40 MSTORE CALLVALUE DUP1 ISZERO PUSH2 0x10 JUMPI PUSH1 0x0 DUP1 REVERT JUMPDEST POP PUSH1 0x2 DUP1 SLOAD PUSH1 0x1 PUSH1 0x1 PUSH1 0xA0 SHL SUB NOT AND CALLER OR SWAP1 SSTORE PUSH2 0x12EE DUP1 PUSH2 0x32 PUSH1 0x0 CODECOPY PUSH1 0x0 RETURN INVALID PUSH1 0x80 PUSH1 0x40 MSTORE CALLVALUE DUP1 ISZERO PUSH2 0x10 JUMPI PUSH1 0x0 DUP1 REVERT JUMPDEST POP PUSH1 0x4 CALLDATASIZE LT PUSH2 0x7D JUMPI PUSH1 0x0 CALLDATALOAD PUSH1 0xE0 SHR DUP1 PUSH4 0x799B1BD2 GT PUSH2 0x5B JUMPI DUP1 PUSH4 0x799B1BD2 EQ PUSH2 0x101 JUMPI DUP1 PUSH4 0x8DA5CB5B EQ PUSH2 0x116 JUMPI DUP1 PUSH4 0x95A022CD EQ PUSH2 0x141 JUMPI DUP1 PUSH4 0xA4E47A26 EQ PUSH2 0x154 JUMPI PUSH1 0x0 DUP1 REVERT JUMPDEST DUP1 PUSH4 0xD5B1704 EQ PUSH2 0x82 JUMPI DUP1 PUSH4 0x30266537 EQ PUSH2 0xA8 JUMPI DUP1 PUSH4 0x5B421E1A EQ PUSH2 0xCB JUMPI JUMPDEST PUSH1 0x0 DUP1 REVERT JUMPDEST PUSH2 0x95 PUSH2 0x90 CALLDATASIZE PUSH1 0x4 PUSH2 0xBEB JUMP JUMPDEST PUSH2 0x176 JUMP JUMPDEST PUSH1 0x40 MLOAD SWAP1 DUP2 MSTORE PUSH1 0x20 ADD JUMPDEST PUSH1 0x40 MLOAD DUP1 SWAP2 SUB SWAP1 RETURN JUMPDEST PUSH2 0xBB PUSH2 0xB6 CALLDATASIZE PUSH1 0x4 PUSH2 0xC37 JUMP JUMPDEST PUSH2 0x2F8 JUMP JUMPDEST PUSH1 0x40 MLOAD PUSH2 0x9F SWAP5 SWAP4 SWAP3 SWAP2 SWAP1 PUSH2 0xC96 JUMP JUMPDEST PUSH2 0xF1 PUSH2 0xD9 CALLDATASIZE PUSH1 0x4 PUSH2 0xC37 JUMP JUMPDEST PUSH1 0x0 SWAP1 DUP2 MSTORE PUSH1 0x20 DUP2 SWAP1 MSTORE PUSH1 0x40 SWAP1 KECCAK256 PUSH1 0x4 ADD SLOAD PUSH1 0xFF AND SWAP1 JUMP JUMPDEST PUSH1 0x40 MLOAD SWAP1 ISZERO ISZERO DUP2 MSTORE PUSH1 0x20 ADD PUSH2 0x9F JUMP JUMPDEST PUSH2 0x114 PUSH2 0x10F CALLDATASIZE PUSH1 0x4 PUSH2 0xD7B JUMP JUMPDEST PUSH2 0x49F JUMP JUMPDEST STOP JUMPDEST PUSH1 0x2 SLOAD PUSH2 0x129 SWAP1 PUSH1 0x1 PUSH1 0x1 PUSH1 0xA0 SHL SUB AND DUP2 JUMP JUMPDEST PUSH1 0x40 MLOAD PUSH1 0x1 PUSH1 0x1 PUSH1 0xA0 SHL SUB SWAP1 SWAP2 AND DUP2 MSTORE PUSH1 0x20 ADD PUSH2 0x9F JUMP JUMPDEST PUSH2 0x114 PUSH2 0x14F CALLDATASIZE PUSH1 0x4 PUSH2 0xE1F JUMP JUMPDEST PUSH2 0x90F JUMP JUMPDEST PUSH2 0x167 PUSH2 0x162 CALLDATASIZE PUSH1 0x4 PUSH2 0xC37 JUMP JUMPDEST PUSH2 0xA87 JUMP JUMPDEST PUSH1 0x40 MLOAD PUSH2 0x9F SWAP4 SWAP3 SWAP2 SWAP1 PUSH2 0xE41 JUMP JUMPDEST PUSH1 0x0 DUP2 DUP2 MSTORE PUSH1 0x20 DUP2 SWAP1 MSTORE PUSH1 0x40 DUP2 KECCAK256 PUSH1 0x4 ADD SLOAD DUP3 SWAP1 PUSH1 0xFF AND PUSH2 0x1B2 JUMPI PUSH1 0x40 MLOAD PUSH3 0x461BCD PUSH1 0xE5 SHL DUP2 MSTORE PUSH1 0x4 ADD PUSH2 0x1A9 SWAP1 PUSH2 0xE66 JUMP JUMPDEST PUSH1 0x40 MLOAD DUP1 SWAP2 SUB SWAP1 REVERT JUMPDEST DUP4 PUSH2 0x209 JUMPI PUSH1 0x40 MLOAD PUSH3 0x461BCD PUSH1 0xE5 SHL DUP2 MSTORE PUSH1 0x20 PUSH1 0x4 DUP3 ADD MSTORE PUSH1 0x21 PUSH1 0x24 DUP3 ADD MSTORE PUSH32 0x4D7573696352656769737472793A20656D7074792065766964656E6365204349 PUSH1 0x44 DUP3 ADD MSTORE PUSH1 0x11 PUSH1 0xFA SHL PUSH1 0x64 DUP3 ADD MSTORE PUSH1 0x84 ADD PUSH2 0x1A9 JUMP JUMPDEST DUP5 DUP5 DUP5 TIMESTAMP CALLER PUSH1 0x40 MLOAD PUSH1 0x20 ADD PUSH2 0x222 SWAP6 SWAP5 SWAP4 SWAP3 SWAP2 SWAP1 PUSH2 0xEA8 JUMP JUMPDEST PUSH1 0x40 DUP1 MLOAD PUSH1 0x1F NOT DUP2 DUP5 SUB ADD DUP2 MSTORE DUP3 DUP3 MSTORE DUP1 MLOAD PUSH1 0x20 SWAP2 DUP3 ADD KECCAK256 PUSH1 0x80 PUSH1 0x1F DUP10 ADD DUP4 SWAP1 DIV SWAP1 SWAP3 MUL DUP5 ADD DUP3 ADD SWAP1 SWAP3 MSTORE PUSH1 0x60 DUP4 ADD DUP8 DUP2 MSTORE SWAP2 SWAP5 POP DUP3 SWAP2 SWAP1 DUP9 SWAP1 DUP9 SWAP1 DUP2 SWAP1 DUP6 ADD DUP4 DUP3 DUP1 DUP3 DUP5 CALLDATACOPY PUSH1 0x0 SWAP3 ADD DUP3 SWAP1 MSTORE POP SWAP4 DUP6 MSTORE POP POP POP PUSH1 0x20 DUP1 DUP4 ADD DUP8 SWAP1 MSTORE TIMESTAMP PUSH1 0x40 SWAP4 DUP5 ADD MSTORE DUP6 DUP3 MSTORE PUSH1 0x1 SWAP1 MSTORE KECCAK256 DUP2 MLOAD DUP2 SWAP1 PUSH2 0x29B SWAP1 DUP3 PUSH2 0xF78 JUMP JUMPDEST POP PUSH1 0x20 DUP3 ADD MLOAD DUP2 PUSH1 0x1 ADD SSTORE PUSH1 0x40 DUP3 ADD MLOAD DUP2 PUSH1 0x2 ADD SSTORE SWAP1 POP POP DUP3 DUP3 PUSH32 0x2430FAB8792A7EB17642E901C793B33843175B7F9E8B5C07447199717995DA44 DUP8 DUP8 TIMESTAMP PUSH1 0x40 MLOAD PUSH2 0x2E8 SWAP4 SWAP3 SWAP2 SWAP1 PUSH2 0x1061 JUMP JUMPDEST PUSH1 0x40 MLOAD DUP1 SWAP2 SUB SWAP1 LOG3 POP SWAP4 SWAP3 POP POP POP JUMP JUMPDEST PUSH1 0x0 DUP2 DUP2 MSTORE PUSH1 0x20 DUP2 SWAP1 MSTORE PUSH1 0x40 DUP2 KECCAK256 PUSH1 0x4 ADD SLOAD PUSH1 0x60 SWAP2 DUP3 SWAP2 DUP3 SWAP2 SWAP1 DUP6 SWAP1 PUSH1 0xFF AND PUSH2 0x333 JUMPI PUSH1 0x40 MLOAD PUSH3 0x461BCD PUSH1 0xE5 SHL DUP2 MSTORE PUSH1 0x4 ADD PUSH2 0x1A9 SWAP1 PUSH2 0xE66 JUMP JUMPDEST PUSH1 0x0 DUP7 DUP2 MSTORE PUSH1 0x20 DUP2 SWAP1 MSTORE PUSH1 0x40 SWAP1 KECCAK256 PUSH1 0x3 DUP2 ADD SLOAD DUP2 SLOAD DUP3 SWAP2 PUSH1 0x1 DUP4 ADD SWAP2 PUSH1 0x2 DUP5 ADD SWAP2 SWAP1 DUP5 SWAP1 PUSH2 0x360 SWAP1 PUSH2 0xEEF JUMP JUMPDEST DUP1 PUSH1 0x1F ADD PUSH1 0x20 DUP1 SWAP2 DIV MUL PUSH1 0x20 ADD PUSH1 0x40 MLOAD SWAP1 DUP2 ADD PUSH1 0x40 MSTORE DUP1 SWAP3 SWAP2 SWAP1 DUP2 DUP2 MSTORE PUSH1 0x20 ADD DUP3 DUP1 SLOAD PUSH2 0x38C SWAP1 PUSH2 0xEEF JUMP JUMPDEST DUP1 ISZERO PUSH2 0x3D9 JUMPI DUP1 PUSH1 0x1F LT PUSH2 0x3AE JUMPI PUSH2 0x100 DUP1 DUP4 SLOAD DIV MUL DUP4 MSTORE SWAP2 PUSH1 0x20 ADD SWAP2 PUSH2 0x3D9 JUMP JUMPDEST DUP3 ADD SWAP2 SWAP1 PUSH1 0x0 MSTORE PUSH1 0x20 PUSH1 0x0 KECCAK256 SWAP1 JUMPDEST DUP2 SLOAD DUP2 MSTORE SWAP1 PUSH1 0x1 ADD SWAP1 PUSH1 0x20 ADD DUP1 DUP4 GT PUSH2 0x3BC JUMPI DUP3 SWAP1 SUB PUSH1 0x1F AND DUP3 ADD SWAP2 JUMPDEST POP POP POP POP POP SWAP4 POP DUP3 DUP1 SLOAD DUP1 PUSH1 0x20 MUL PUSH1 0x20 ADD PUSH1 0x40 MLOAD SWAP1 DUP2 ADD PUSH1 0x40 MSTORE DUP1 SWAP3 SWAP2 SWAP1 DUP2 DUP2 MSTORE PUSH1 0x20 ADD DUP3 DUP1 SLOAD DUP1 ISZERO PUSH2 0x435 JUMPI PUSH1 0x20 MUL DUP3 ADD SWAP2 SWAP1 PUSH1 0x0 MSTORE PUSH1 0x20 PUSH1 0x0 KECCAK256 SWAP1 JUMPDEST DUP2 SLOAD PUSH1 0x1 PUSH1 0x1 PUSH1 0xA0 SHL SUB AND DUP2 MSTORE PUSH1 0x1 SWAP1 SWAP2 ADD SWAP1 PUSH1 0x20 ADD DUP1 DUP4 GT PUSH2 0x417 JUMPI JUMPDEST POP POP POP POP POP SWAP3 POP DUP2 DUP1 SLOAD DUP1 PUSH1 0x20 MUL PUSH1 0x20 ADD PUSH1 0x40 MLOAD SWAP1 DUP2 ADD PUSH1 0x40 MSTORE DUP1 SWAP3 SWAP2 SWAP1 DUP2 DUP2 MSTORE PUSH1 0x20 ADD DUP3 DUP1 SLOAD DUP1 ISZERO PUSH2 0x487 JUMPI PUSH1 0x20 MUL DUP3 ADD SWAP2 SWAP1 PUSH1 0x0 MSTORE PUSH1 0x20 PUSH1 0x0 KECCAK256 SWAP1 JUMPDEST DUP2 SLOAD DUP2 MSTORE PUSH1 0x20 ADD SWAP1 PUSH1 0x1 ADD SWAP1 DUP1 DUP4 GT PUSH2 0x473 JUMPI JUMPDEST POP POP POP POP POP SWAP2 POP SWAP6 POP SWAP6 POP SWAP6 POP SWAP6 POP POP POP SWAP2 SWAP4 POP SWAP2 SWAP4 JUMP JUMPDEST PUSH1 0x0 DUP8 DUP2 MSTORE PUSH1 0x20 DUP2 SWAP1 MSTORE PUSH1 0x40 SWAP1 KECCAK256 PUSH1 0x4 ADD SLOAD DUP8 SWAP1 PUSH1 0xFF AND ISZERO PUSH2 0x512 JUMPI PUSH1 0x40 MLOAD PUSH3 0x461BCD PUSH1 0xE5 SHL DUP2 MSTORE PUSH1 0x20 PUSH1 0x4 DUP3 ADD MSTORE PUSH1 0x26 PUSH1 0x24 DUP3 ADD MSTORE PUSH32 0x4D7573696352656769737472793A20776F726B20616C72656164792072656769 PUSH1 0x44 DUP3 ADD MSTORE PUSH6 0x1CDD195C9959 PUSH1 0xD2 SHL PUSH1 0x64 DUP3 ADD MSTORE PUSH1 0x84 ADD PUSH2 0x1A9 JUMP JUMPDEST DUP6 PUSH2 0x55F JUMPI PUSH1 0x40 MLOAD PUSH3 0x461BCD PUSH1 0xE5 SHL DUP2 MSTORE PUSH1 0x20 PUSH1 0x4 DUP3 ADD MSTORE PUSH1 0x18 PUSH1 0x24 DUP3 ADD MSTORE PUSH32 0x4D7573696352656769737472793A20656D707479204349440000000000000000 PUSH1 0x44 DUP3 ADD MSTORE PUSH1 0x64 ADD PUSH2 0x1A9 JUMP JUMPDEST DUP4 PUSH2 0x5BA JUMPI PUSH1 0x40 MLOAD PUSH3 0x461BCD PUSH1 0xE5 SHL DUP2 MSTORE PUSH1 0x20 PUSH1 0x4 DUP3 ADD MSTORE PUSH1 0x25 PUSH1 0x24 DUP3 ADD MSTORE PUSH32 0x4D7573696352656769737472793A206E6F20726563697069656E74732070726F PUSH1 0x44 DUP3 ADD MSTORE PUSH5 0x1D9A591959 PUSH1 0xDA SHL PUSH1 0x64 DUP3 ADD MSTORE PUSH1 0x84 ADD PUSH2 0x1A9 JUMP JUMPDEST DUP4 DUP3 EQ PUSH2 0x626 JUMPI PUSH1 0x40 MLOAD PUSH3 0x461BCD PUSH1 0xE5 SHL DUP2 MSTORE PUSH1 0x20 PUSH1 0x4 DUP3 ADD MSTORE PUSH1 0x34 PUSH1 0x24 DUP3 ADD MSTORE PUSH32 0x4D7573696352656769737472793A20726563697069656E747320616E64207368 PUSH1 0x44 DUP3 ADD MSTORE PUSH20 0xC2E4CAE640D8CADCCEE8D040DAD2E6DAC2E8C6D PUSH1 0x63 SHL PUSH1 0x64 DUP3 ADD MSTORE PUSH1 0x84 ADD PUSH2 0x1A9 JUMP JUMPDEST PUSH1 0x0 DUP1 JUMPDEST DUP4 DUP2 LT ISZERO PUSH2 0x775 JUMPI PUSH1 0x0 DUP8 DUP8 DUP4 DUP2 DUP2 LT PUSH2 0x646 JUMPI PUSH2 0x646 PUSH2 0x1085 JUMP JUMPDEST SWAP1 POP PUSH1 0x20 MUL ADD PUSH1 0x20 DUP2 ADD SWAP1 PUSH2 0x65B SWAP2 SWAP1 PUSH2 0x10B7 JUMP JUMPDEST PUSH1 0x1 PUSH1 0x1 PUSH1 0xA0 SHL SUB AND SUB PUSH2 0x6C1 JUMPI PUSH1 0x40 MLOAD PUSH3 0x461BCD PUSH1 0xE5 SHL DUP2 MSTORE PUSH1 0x20 PUSH1 0x4 DUP3 ADD MSTORE PUSH1 0x27 PUSH1 0x24 DUP3 ADD MSTORE PUSH32 0x4D7573696352656769737472793A207A65726F2061646472657373206E6F7420 PUSH1 0x44 DUP3 ADD MSTORE PUSH7 0x185B1B1BDDD959 PUSH1 0xCA SHL PUSH1 0x64 DUP3 ADD MSTORE PUSH1 0x84 ADD PUSH2 0x1A9 JUMP JUMPDEST PUSH1 0x0 DUP6 DUP6 DUP4 DUP2 DUP2 LT PUSH2 0x6D5 JUMPI PUSH2 0x6D5 PUSH2 0x1085 JUMP JUMPDEST SWAP1 POP PUSH1 0x20 MUL ADD CALLDATALOAD GT PUSH2 0x73D JUMPI PUSH1 0x40 MLOAD PUSH3 0x461BCD PUSH1 0xE5 SHL DUP2 MSTORE PUSH1 0x20 PUSH1 0x4 DUP3 ADD MSTORE PUSH1 0x2B PUSH1 0x24 DUP3 ADD MSTORE PUSH32 0x4D7573696352656769737472793A207368617265206D75737420626520677265 PUSH1 0x44 DUP3 ADD MSTORE PUSH11 0x61746572207468616E203 PUSH1 0xAC SHL PUSH1 0x64 DUP3 ADD MSTORE PUSH1 0x84 ADD PUSH2 0x1A9 JUMP JUMPDEST DUP5 DUP5 DUP3 DUP2 DUP2 LT PUSH2 0x74F JUMPI PUSH2 0x74F PUSH2 0x1085 JUMP JUMPDEST SWAP1 POP PUSH1 0x20 MUL ADD CALLDATALOAD DUP3 PUSH2 0x761 SWAP2 SWAP1 PUSH2 0x10EF JUMP JUMPDEST SWAP2 POP DUP1 PUSH2 0x76D DUP2 PUSH2 0x1108 JUMP JUMPDEST SWAP2 POP POP PUSH2 0x62A JUMP JUMPDEST POP DUP1 PUSH1 0x64 EQ PUSH2 0x7DC JUMPI PUSH1 0x40 MLOAD PUSH3 0x461BCD PUSH1 0xE5 SHL DUP2 MSTORE PUSH1 0x20 PUSH1 0x4 DUP3 ADD MSTORE PUSH1 0x2D PUSH1 0x24 DUP3 ADD MSTORE PUSH32 0x4D7573696352656769737472793A20736861726573206D7573742073756D2074 PUSH1 0x44 DUP3 ADD MSTORE PUSH13 0x6F2065786163746C792031303 PUSH1 0x9C SHL PUSH1 0x64 DUP3 ADD MSTORE PUSH1 0x84 ADD PUSH2 0x1A9 JUMP JUMPDEST PUSH1 0x0 DUP10 DUP2 MSTORE PUSH1 0x20 DUP2 SWAP1 MSTORE PUSH1 0x40 SWAP1 KECCAK256 DUP1 PUSH2 0x7F6 DUP10 DUP12 DUP4 PUSH2 0x1121 JUMP JUMPDEST POP TIMESTAMP PUSH1 0x3 DUP3 ADD SSTORE PUSH1 0x4 DUP2 ADD DUP1 SLOAD PUSH1 0xFF NOT AND PUSH1 0x1 OR SWAP1 SSTORE PUSH1 0x0 JUMPDEST DUP7 DUP2 LT ISZERO PUSH2 0x8BE JUMPI DUP2 PUSH1 0x1 ADD DUP9 DUP9 DUP4 DUP2 DUP2 LT PUSH2 0x82D JUMPI PUSH2 0x82D PUSH2 0x1085 JUMP JUMPDEST SWAP1 POP PUSH1 0x20 MUL ADD PUSH1 0x20 DUP2 ADD SWAP1 PUSH2 0x842 SWAP2 SWAP1 PUSH2 0x10B7 JUMP JUMPDEST DUP2 SLOAD PUSH1 0x1 DUP2 ADD DUP4 SSTORE PUSH1 0x0 SWAP3 DUP4 MSTORE PUSH1 0x20 SWAP1 SWAP3 KECCAK256 SWAP1 SWAP2 ADD DUP1 SLOAD PUSH1 0x1 PUSH1 0x1 PUSH1 0xA0 SHL SUB NOT AND PUSH1 0x1 PUSH1 0x1 PUSH1 0xA0 SHL SUB SWAP1 SWAP3 AND SWAP2 SWAP1 SWAP2 OR SWAP1 SSTORE PUSH1 0x2 DUP3 ADD DUP7 DUP7 DUP4 DUP2 DUP2 LT PUSH2 0x88A JUMPI PUSH2 0x88A PUSH2 0x1085 JUMP JUMPDEST DUP4 SLOAD PUSH1 0x1 DUP2 ADD DUP6 SSTORE PUSH1 0x0 SWAP5 DUP6 MSTORE PUSH1 0x20 SWAP5 DUP6 SWAP1 KECCAK256 SWAP2 SWAP1 SWAP5 MUL SWAP3 SWAP1 SWAP3 ADD CALLDATALOAD SWAP2 SWAP1 SWAP3 ADD SSTORE POP DUP1 PUSH2 0x8B6 DUP2 PUSH2 0x1108 JUMP JUMPDEST SWAP2 POP POP PUSH2 0x80F JUMP JUMPDEST POP DUP10 PUSH32 0x9A3E73B2BD8214D0A8CE3480E4FB35119232778DD268D8DF8EB122CD7D2F3BEA DUP11 DUP11 DUP11 DUP11 DUP11 DUP11 TIMESTAMP PUSH1 0x40 MLOAD PUSH2 0x8FB SWAP8 SWAP7 SWAP6 SWAP5 SWAP4 SWAP3 SWAP2 SWAP1 PUSH2 0x11E1 JUMP JUMPDEST PUSH1 0x40 MLOAD DUP1 SWAP2 SUB SWAP1 LOG2 POP POP POP POP POP POP POP POP POP POP JUMP JUMPDEST PUSH1 0x0 DUP3 DUP2 MSTORE PUSH1 0x20 DUP2 SWAP1 MSTORE PUSH1 0x40 SWAP1 KECCAK256 PUSH1 0x4 ADD SLOAD DUP3 SWAP1 PUSH1 0xFF AND PUSH2 0x942 JUMPI PUSH1 0x40 MLOAD PUSH3 0x461BCD PUSH1 0xE5 SHL DUP2 MSTORE PUSH1 0x4 ADD PUSH2 0x1A9 SWAP1 PUSH2 0xE66 JUMP JUMPDEST PUSH1 0x0 DUP3 GT PUSH2 0x9AC JUMPI PUSH1 0x40 MLOAD PUSH3 0x461BCD PUSH1 0xE5 SHL DUP2 MSTORE PUSH1 0x20 PUSH1 0x4 DUP3 ADD MSTORE PUSH1 0x31 PUSH1 0x24 DUP3 ADD MSTORE PUSH32 0x4D7573696352656769737472793A20746F74616C416D6F756E74206D75737420 PUSH1 0x44 DUP3 ADD MSTORE PUSH17 0x62652067726561746572207468616E203 PUSH1 0x7C SHL PUSH1 0x64 DUP3 ADD MSTORE PUSH1 0x84 ADD PUSH2 0x1A9 JUMP JUMPDEST PUSH1 0x0 DUP4 DUP2 MSTORE PUSH1 0x20 DUP2 SWAP1 MSTORE PUSH1 0x40 DUP2 KECCAK256 SWAP1 JUMPDEST PUSH1 0x1 DUP3 ADD SLOAD DUP2 LT ISZERO PUSH2 0xA80 JUMPI PUSH1 0x0 PUSH1 0x64 DUP4 PUSH1 0x2 ADD DUP4 DUP2 SLOAD DUP2 LT PUSH2 0x9E1 JUMPI PUSH2 0x9E1 PUSH2 0x1085 JUMP JUMPDEST SWAP1 PUSH1 0x0 MSTORE PUSH1 0x20 PUSH1 0x0 KECCAK256 ADD SLOAD DUP7 PUSH2 0x9F7 SWAP2 SWAP1 PUSH2 0x127F JUMP JUMPDEST PUSH2 0xA01 SWAP2 SWAP1 PUSH2 0x1296 JUMP JUMPDEST SWAP1 POP DUP3 PUSH1 0x1 ADD DUP3 DUP2 SLOAD DUP2 LT PUSH2 0xA18 JUMPI PUSH2 0xA18 PUSH2 0x1085 JUMP JUMPDEST PUSH1 0x0 SWAP2 DUP3 MSTORE PUSH1 0x20 SWAP2 DUP3 SWAP1 KECCAK256 ADD SLOAD PUSH1 0x40 DUP1 MLOAD DUP5 DUP2 MSTORE TIMESTAMP SWAP4 DUP2 ADD SWAP4 SWAP1 SWAP4 MSTORE PUSH1 0x1 PUSH1 0x1 PUSH1 0xA0 SHL SUB SWAP1 SWAP2 AND SWAP2 DUP9 SWAP2 PUSH32 0x52CC12AC2B9AB6059658ACAE4BB8E9FD99C4B53452B5E2C266EE1775AEC19C3F SWAP2 ADD PUSH1 0x40 MLOAD DUP1 SWAP2 SUB SWAP1 LOG3 POP DUP1 PUSH2 0xA78 DUP2 PUSH2 0x1108 JUMP JUMPDEST SWAP2 POP POP PUSH2 0x9BC JUMP JUMPDEST POP POP POP POP POP JUMP JUMPDEST PUSH1 0x0 DUP2 DUP2 MSTORE PUSH1 0x1 PUSH1 0x20 MSTORE PUSH1 0x40 DUP2 KECCAK256 PUSH1 0x2 DUP2 ADD SLOAD PUSH1 0x60 SWAP3 SWAP2 DUP3 SWAP2 PUSH2 0xAFA JUMPI PUSH1 0x40 MLOAD PUSH3 0x461BCD PUSH1 0xE5 SHL DUP2 MSTORE PUSH1 0x20 PUSH1 0x4 DUP3 ADD MSTORE PUSH1 0x25 PUSH1 0x24 DUP3 ADD MSTORE PUSH32 0x4D7573696352656769737472793A20696E6672696E67656D656E74206E6F7420 PUSH1 0x44 DUP3 ADD MSTORE PUSH5 0x199BDD5B99 PUSH1 0xDA SHL PUSH1 0x64 DUP3 ADD MSTORE PUSH1 0x84 ADD PUSH2 0x1A9 JUMP JUMPDEST DUP1 PUSH1 0x0 ADD DUP2 PUSH1 0x1 ADD SLOAD DUP3 PUSH1 0x2 ADD SLOAD DUP3 DUP1 SLOAD PUSH2 0xB14 SWAP1 PUSH2 0xEEF JUMP JUMPDEST DUP1 PUSH1 0x1F ADD PUSH1 0x20 DUP1 SWAP2 DIV MUL PUSH1 0x20 ADD PUSH1 0x40 MLOAD SWAP1 DUP2 ADD PUSH1 0x40 MSTORE DUP1 SWAP3 SWAP2 SWAP1 DUP2 DUP2 MSTORE PUSH1 0x20 ADD DUP3 DUP1 SLOAD PUSH2 0xB40 SWAP1 PUSH2 0xEEF JUMP JUMPDEST DUP1 ISZERO PUSH2 0xB8D JUMPI DUP1 PUSH1 0x1F LT PUSH2 0xB62 JUMPI PUSH2 0x100 DUP1 DUP4 SLOAD DIV MUL DUP4 MSTORE SWAP2 PUSH1 0x20 ADD SWAP2 PUSH2 0xB8D JUMP JUMPDEST DUP3 ADD SWAP2 SWAP1 PUSH1 0x0 MSTORE PUSH1 0x20 PUSH1 0x0 KECCAK256 SWAP1 JUMPDEST DUP2 SLOAD DUP2 MSTORE SWAP1 PUSH1 0x1 ADD SWAP1 PUSH1 0x20 ADD DUP1 DUP4 GT PUSH2 0xB70 JUMPI DUP3 SWAP1 SUB PUSH1 0x1F AND DUP3 ADD SWAP2 JUMPDEST POP POP POP POP POP SWAP3 POP SWAP4 POP SWAP4 POP SWAP4 POP POP SWAP2 SWAP4 SWAP1 SWAP3 POP JUMP JUMPDEST PUSH1 0x0 DUP1 DUP4 PUSH1 0x1F DUP5 ADD SLT PUSH2 0xBB4 JUMPI PUSH1 0x0 DUP1 REVERT JUMPDEST POP DUP2 CALLDATALOAD PUSH8 0xFFFFFFFFFFFFFFFF DUP2 GT ISZERO PUSH2 0xBCC JUMPI PUSH1 0x0 DUP1 REVERT JUMPDEST PUSH1 0x20 DUP4 ADD SWAP2 POP DUP4 PUSH1 0x20 DUP3 DUP6 ADD ADD GT ISZERO PUSH2 0xBE4 JUMPI PUSH1 0x0 DUP1 REVERT JUMPDEST SWAP3 POP SWAP3 SWAP1 POP JUMP JUMPDEST PUSH1 0x0 DUP1 PUSH1 0x0 PUSH1 0x40 DUP5 DUP7 SUB SLT ISZERO PUSH2 0xC00 JUMPI PUSH1 0x0 DUP1 REVERT JUMPDEST DUP4 CALLDATALOAD PUSH8 0xFFFFFFFFFFFFFFFF DUP2 GT ISZERO PUSH2 0xC17 JUMPI PUSH1 0x0 DUP1 REVERT JUMPDEST PUSH2 0xC23 DUP7 DUP3 DUP8 ADD PUSH2 0xBA2 JUMP JUMPDEST SWAP1 SWAP8 SWAP1 SWAP7 POP PUSH1 0x20 SWAP6 SWAP1 SWAP6 ADD CALLDATALOAD SWAP5 SWAP4 POP POP POP POP JUMP JUMPDEST PUSH1 0x0 PUSH1 0x20 DUP3 DUP5 SUB SLT ISZERO PUSH2 0xC49 JUMPI PUSH1 0x0 DUP1 REVERT JUMPDEST POP CALLDATALOAD SWAP2 SWAP1 POP JUMP JUMPDEST PUSH1 0x0 DUP2 MLOAD DUP1 DUP5 MSTORE PUSH1 0x0 JUMPDEST DUP2 DUP2 LT ISZERO PUSH2 0xC76 JUMPI PUSH1 0x20 DUP2 DUP6 ADD DUP2 ADD MLOAD DUP7 DUP4 ADD DUP3 ADD MSTORE ADD PUSH2 0xC5A JUMP JUMPDEST POP PUSH1 0x0 PUSH1 0x20 DUP3 DUP7 ADD ADD MSTORE PUSH1 0x20 PUSH1 0x1F NOT PUSH1 0x1F DUP4 ADD AND DUP6 ADD ADD SWAP2 POP POP SWAP3 SWAP2 POP POP JUMP JUMPDEST PUSH1 0x80 DUP2 MSTORE PUSH1 0x0 PUSH2 0xCA9 PUSH1 0x80 DUP4 ADD DUP8 PUSH2 0xC50 JUMP JUMPDEST DUP3 DUP2 SUB PUSH1 0x20 DUP5 DUP2 ADD SWAP2 SWAP1 SWAP2 MSTORE DUP7 MLOAD DUP1 DUP4 MSTORE DUP8 DUP3 ADD SWAP3 DUP3 ADD SWAP1 PUSH1 0x0 JUMPDEST DUP2 DUP2 LT ISZERO PUSH2 0xCE9 JUMPI DUP5 MLOAD PUSH1 0x1 PUSH1 0x1 PUSH1 0xA0 SHL SUB AND DUP4 MSTORE SWAP4 DUP4 ADD SWAP4 SWAP2 DUP4 ADD SWAP2 PUSH1 0x1 ADD PUSH2 0xCC4 JUMP JUMPDEST POP POP DUP5 DUP2 SUB PUSH1 0x40 DUP7 ADD MSTORE DUP7 MLOAD DUP1 DUP3 MSTORE SWAP1 DUP3 ADD SWAP3 POP DUP2 DUP8 ADD SWAP1 PUSH1 0x0 JUMPDEST DUP2 DUP2 LT ISZERO PUSH2 0xD20 JUMPI DUP3 MLOAD DUP6 MSTORE SWAP4 DUP4 ADD SWAP4 SWAP2 DUP4 ADD SWAP2 PUSH1 0x1 ADD PUSH2 0xD04 JUMP JUMPDEST POP POP POP POP PUSH1 0x60 SWAP3 SWAP1 SWAP3 ADD SWAP3 SWAP1 SWAP3 MSTORE SWAP5 SWAP4 POP POP POP POP JUMP JUMPDEST PUSH1 0x0 DUP1 DUP4 PUSH1 0x1F DUP5 ADD SLT PUSH2 0xD48 JUMPI PUSH1 0x0 DUP1 REVERT JUMPDEST POP DUP2 CALLDATALOAD PUSH8 0xFFFFFFFFFFFFFFFF DUP2 GT ISZERO PUSH2 0xD60 JUMPI PUSH1 0x0 DUP1 REVERT JUMPDEST PUSH1 0x20 DUP4 ADD SWAP2 POP DUP4 PUSH1 0x20 DUP3 PUSH1 0x5 SHL DUP6 ADD ADD GT ISZERO PUSH2 0xBE4 JUMPI PUSH1 0x0 DUP1 REVERT JUMPDEST PUSH1 0x0 DUP1 PUSH1 0x0 DUP1 PUSH1 0x0 DUP1 PUSH1 0x0 PUSH1 0x80 DUP9 DUP11 SUB SLT ISZERO PUSH2 0xD96 JUMPI PUSH1 0x0 DUP1 REVERT JUMPDEST DUP8 CALLDATALOAD SWAP7 POP PUSH1 0x20 DUP9 ADD CALLDATALOAD PUSH8 0xFFFFFFFFFFFFFFFF DUP1 DUP3 GT ISZERO PUSH2 0xDB5 JUMPI PUSH1 0x0 DUP1 REVERT JUMPDEST PUSH2 0xDC1 DUP12 DUP4 DUP13 ADD PUSH2 0xBA2 JUMP JUMPDEST SWAP1 SWAP9 POP SWAP7 POP PUSH1 0x40 DUP11 ADD CALLDATALOAD SWAP2 POP DUP1 DUP3 GT ISZERO PUSH2 0xDDA JUMPI PUSH1 0x0 DUP1 REVERT JUMPDEST PUSH2 0xDE6 DUP12 DUP4 DUP13 ADD PUSH2 0xD36 JUMP JUMPDEST SWAP1 SWAP7 POP SWAP5 POP PUSH1 0x60 DUP11 ADD CALLDATALOAD SWAP2 POP DUP1 DUP3 GT ISZERO PUSH2 0xDFF JUMPI PUSH1 0x0 DUP1 REVERT JUMPDEST POP PUSH2 0xE0C DUP11 DUP3 DUP12 ADD PUSH2 0xD36 JUMP JUMPDEST SWAP9 SWAP12 SWAP8 SWAP11 POP SWAP6 SWAP9 POP SWAP4 SWAP7 SWAP3 SWAP6 SWAP3 SWAP4 POP POP POP JUMP JUMPDEST PUSH1 0x0 DUP1 PUSH1 0x40 DUP4 DUP6 SUB SLT ISZERO PUSH2 0xE32 JUMPI PUSH1 0x0 DUP1 REVERT JUMPDEST POP POP DUP1 CALLDATALOAD SWAP3 PUSH1 0x20 SWAP1 SWAP2 ADD CALLDATALOAD SWAP2 POP JUMP JUMPDEST PUSH1 0x60 DUP2 MSTORE PUSH1 0x0 PUSH2 0xE54 PUSH1 0x60 DUP4 ADD DUP7 PUSH2 0xC50 JUMP JUMPDEST PUSH1 0x20 DUP4 ADD SWAP5 SWAP1 SWAP5 MSTORE POP PUSH1 0x40 ADD MSTORE SWAP2 SWAP1 POP JUMP JUMPDEST PUSH1 0x20 DUP1 DUP3 MSTORE PUSH1 0x22 SWAP1 DUP3 ADD MSTORE PUSH32 0x4D7573696352656769737472793A20776F726B206E6F74207265676973746572 PUSH1 0x40 DUP3 ADD MSTORE PUSH2 0x1959 PUSH1 0xF2 SHL PUSH1 0x60 DUP3 ADD MSTORE PUSH1 0x80 ADD SWAP1 JUMP JUMPDEST DUP5 DUP7 DUP3 CALLDATACOPY SWAP1 SWAP4 ADD SWAP2 DUP3 MSTORE PUSH1 0x20 DUP3 ADD MSTORE PUSH1 0x60 SWAP2 SWAP1 SWAP2 SHL PUSH12 0xFFFFFFFFFFFFFFFFFFFFFFFF NOT AND PUSH1 0x40 DUP3 ADD MSTORE PUSH1 0x54 ADD SWAP2 SWAP1 POP JUMP JUMPDEST PUSH4 0x4E487B71 PUSH1 0xE0 SHL PUSH1 0x0 MSTORE PUSH1 0x41 PUSH1 0x4 MSTORE PUSH1 0x24 PUSH1 0x0 REVERT JUMPDEST PUSH1 0x1 DUP2 DUP2 SHR SWAP1 DUP3 AND DUP1 PUSH2 0xF03 JUMPI PUSH1 0x7F DUP3 AND SWAP2 POP JUMPDEST PUSH1 0x20 DUP3 LT DUP2 SUB PUSH2 0xF23 JUMPI PUSH4 0x4E487B71 PUSH1 0xE0 SHL PUSH1 0x0 MSTORE PUSH1 0x22 PUSH1 0x4 MSTORE PUSH1 0x24 PUSH1 0x0 REVERT JUMPDEST POP SWAP2 SWAP1 POP JUMP JUMPDEST PUSH1 0x1F DUP3 GT ISZERO PUSH2 0xF73 JUMPI PUSH1 0x0 DUP2 DUP2 MSTORE PUSH1 0x20 DUP2 KECCAK256 PUSH1 0x1F DUP6 ADD PUSH1 0x5 SHR DUP2 ADD PUSH1 0x20 DUP7 LT ISZERO PUSH2 0xF50 JUMPI POP DUP1 JUMPDEST PUSH1 0x1F DUP6 ADD PUSH1 0x5 SHR DUP3 ADD SWAP2 POP JUMPDEST DUP2 DUP2 LT ISZERO PUSH2 0xF6F JUMPI DUP3 DUP2 SSTORE PUSH1 0x1 ADD PUSH2 0xF5C JUMP JUMPDEST POP POP POP JUMPDEST POP POP POP JUMP JUMPDEST DUP2 MLOAD PUSH8 0xFFFFFFFFFFFFFFFF DUP2 GT ISZERO PUSH2 0xF92 JUMPI PUSH2 0xF92 PUSH2 0xED9 JUMP JUMPDEST PUSH2 0xFA6 DUP2 PUSH2 0xFA0 DUP5 SLOAD PUSH2 0xEEF JUMP JUMPDEST DUP5 PUSH2 0xF29 JUMP JUMPDEST PUSH1 0x20 DUP1 PUSH1 0x1F DUP4 GT PUSH1 0x1 DUP2 EQ PUSH2 0xFDB JUMPI PUSH1 0x0 DUP5 ISZERO PUSH2 0xFC3 JUMPI POP DUP6 DUP4 ADD MLOAD JUMPDEST PUSH1 0x0 NOT PUSH1 0x3 DUP7 SWAP1 SHL SHR NOT AND PUSH1 0x1 DUP6 SWAP1 SHL OR DUP6 SSTORE PUSH2 0xF6F JUMP JUMPDEST PUSH1 0x0 DUP6 DUP2 MSTORE PUSH1 0x20 DUP2 KECCAK256 PUSH1 0x1F NOT DUP7 AND SWAP2 JUMPDEST DUP3 DUP2 LT ISZERO PUSH2 0x100A JUMPI DUP9 DUP7 ADD MLOAD DUP3 SSTORE SWAP5 DUP5 ADD SWAP5 PUSH1 0x1 SWAP1 SWAP2 ADD SWAP1 DUP5 ADD PUSH2 0xFEB JUMP JUMPDEST POP DUP6 DUP3 LT ISZERO PUSH2 0x1028 JUMPI DUP8 DUP6 ADD MLOAD PUSH1 0x0 NOT PUSH1 0x3 DUP9 SWAP1 SHL PUSH1 0xF8 AND SHR NOT AND DUP2 SSTORE JUMPDEST POP POP POP POP POP PUSH1 0x1 SWAP1 DUP2 SHL ADD SWAP1 SSTORE POP JUMP JUMPDEST DUP2 DUP4 MSTORE DUP2 DUP2 PUSH1 0x20 DUP6 ADD CALLDATACOPY POP PUSH1 0x0 DUP3 DUP3 ADD PUSH1 0x20 SWAP1 DUP2 ADD SWAP2 SWAP1 SWAP2 MSTORE PUSH1 0x1F SWAP1 SWAP2 ADD PUSH1 0x1F NOT AND SWAP1 SWAP2 ADD ADD SWAP1 JUMP JUMPDEST PUSH1 0x40 DUP2 MSTORE PUSH1 0x0 PUSH2 0x1075 PUSH1 0x40 DUP4 ADD DUP6 DUP8 PUSH2 0x1038 JUMP JUMPDEST SWAP1 POP DUP3 PUSH1 0x20 DUP4 ADD MSTORE SWAP5 SWAP4 POP POP POP POP JUMP JUMPDEST PUSH4 0x4E487B71 PUSH1 0xE0 SHL PUSH1 0x0 MSTORE PUSH1 0x32 PUSH1 0x4 MSTORE PUSH1 0x24 PUSH1 0x0 REVERT JUMPDEST DUP1 CALLDATALOAD PUSH1 0x1 PUSH1 0x1 PUSH1 0xA0 SHL SUB DUP2 AND DUP2 EQ PUSH2 0x10B2 JUMPI PUSH1 0x0 DUP1 REVERT JUMPDEST SWAP2 SWAP1 POP JUMP JUMPDEST PUSH1 0x0 PUSH1 0x20 DUP3 DUP5 SUB SLT ISZERO PUSH2 0x10C9 JUMPI PUSH1 0x0 DUP1 REVERT JUMPDEST PUSH2 0x10D2 DUP3 PUSH2 0x109B JUMP JUMPDEST SWAP4 SWAP3 POP POP POP JUMP JUMPDEST PUSH4 0x4E487B71 PUSH1 0xE0 SHL PUSH1 0x0 MSTORE PUSH1 0x11 PUSH1 0x4 MSTORE PUSH1 0x24 PUSH1 0x0 REVERT JUMPDEST DUP1 DUP3 ADD DUP1 DUP3 GT ISZERO PUSH2 0x1102 JUMPI PUSH2 0x1102 PUSH2 0x10D9 JUMP JUMPDEST SWAP3 SWAP2 POP POP JUMP JUMPDEST PUSH1 0x0 PUSH1 0x1 DUP3 ADD PUSH2 0x111A JUMPI PUSH2 0x111A PUSH2 0x10D9 JUMP JUMPDEST POP PUSH1 0x1 ADD SWAP1 JUMP JUMPDEST PUSH8 0xFFFFFFFFFFFFFFFF DUP4 GT ISZERO PUSH2 0x1139 JUMPI PUSH2 0x1139 PUSH2 0xED9 JUMP JUMPDEST PUSH2 0x114D DUP4 PUSH2 0x1147 DUP4 SLOAD PUSH2 0xEEF JUMP JUMPDEST DUP4 PUSH2 0xF29 JUMP JUMPDEST PUSH1 0x0 PUSH1 0x1F DUP5 GT PUSH1 0x1 DUP2 EQ PUSH2 0x1181 JUMPI PUSH1 0x0 DUP6 ISZERO PUSH2 0x1169 JUMPI POP DUP4 DUP3 ADD CALLDATALOAD JUMPDEST PUSH1 0x0 NOT PUSH1 0x3 DUP8 SWAP1 SHL SHR NOT AND PUSH1 0x1 DUP7 SWAP1 SHL OR DUP4 SSTORE PUSH2 0xA80 JUMP JUMPDEST PUSH1 0x0 DUP4 DUP2 MSTORE PUSH1 0x20 SWAP1 KECCAK256 PUSH1 0x1F NOT DUP7 AND SWAP1 DUP4 JUMPDEST DUP3 DUP2 LT ISZERO PUSH2 0x11B2 JUMPI DUP7 DUP6 ADD CALLDATALOAD DUP3 SSTORE PUSH1 0x20 SWAP5 DUP6 ADD SWAP5 PUSH1 0x1 SWAP1 SWAP3 ADD SWAP2 ADD PUSH2 0x1192 JUMP JUMPDEST POP DUP7 DUP3 LT ISZERO PUSH2 0x11CF JUMPI PUSH1 0x0 NOT PUSH1 0xF8 DUP9 PUSH1 0x3 SHL AND SHR NOT DUP5 DUP8 ADD CALLDATALOAD AND DUP2 SSTORE JUMPDEST POP POP PUSH1 0x1 DUP6 PUSH1 0x1 SHL ADD DUP4 SSTORE POP POP POP POP POP JUMP JUMPDEST PUSH1 0x80 DUP2 MSTORE PUSH1 0x0 PUSH2 0x11F5 PUSH1 0x80 DUP4 ADD DUP10 DUP12 PUSH2 0x1038 JUMP JUMPDEST DUP3 DUP2 SUB PUSH1 0x20 DUP5 DUP2 ADD SWAP2 SWAP1 SWAP2 MSTORE DUP8 DUP3 MSTORE DUP9 SWAP2 DUP2 ADD PUSH1 0x0 JUMPDEST DUP10 DUP2 LT ISZERO PUSH2 0x1237 JUMPI PUSH1 0x1 PUSH1 0x1 PUSH1 0xA0 SHL SUB PUSH2 0x1224 DUP6 PUSH2 0x109B JUMP JUMPDEST AND DUP3 MSTORE SWAP3 DUP3 ADD SWAP3 SWAP1 DUP3 ADD SWAP1 PUSH1 0x1 ADD PUSH2 0x120B JUMP JUMPDEST POP DUP5 DUP2 SUB PUSH1 0x40 DUP7 ADD MSTORE DUP7 DUP2 MSTORE PUSH1 0x1 PUSH1 0x1 PUSH1 0xFB SHL SUB DUP8 GT ISZERO PUSH2 0x1257 JUMPI PUSH1 0x0 DUP1 REVERT JUMPDEST DUP7 PUSH1 0x5 SHL SWAP3 POP DUP3 DUP9 DUP4 DUP4 ADD CALLDATACOPY DUP2 DUP4 DUP3 ADD ADD SWAP4 POP POP POP POP DUP3 PUSH1 0x60 DUP4 ADD MSTORE SWAP9 SWAP8 POP POP POP POP POP POP POP POP JUMP JUMPDEST DUP1 DUP3 MUL DUP2 ISZERO DUP3 DUP3 DIV DUP5 EQ OR PUSH2 0x1102 JUMPI PUSH2 0x1102 PUSH2 0x10D9 JUMP JUMPDEST PUSH1 0x0 DUP3 PUSH2 0x12B3 JUMPI PUSH4 0x4E487B71 PUSH1 0xE0 SHL PUSH1 0x0 MSTORE PUSH1 0x12 PUSH1 0x4 MSTORE PUSH1 0x24 PUSH1 0x0 REVERT JUMPDEST POP DIV SWAP1 JUMP INVALID LOG2 PUSH5 0x6970667358 0x22 SLT KECCAK256 DELEGATECALL 0xE1 DUP13 0xC3 SWAP15 EXTCODECOPY 0xDF ADDRESS DUP5 DUP14 0xDA DUP16 0xCF KECCAK256 PUSH9 0xCA5E2E9E70AC74488D RETURNDATACOPY DUP3 DUP10 0x4F 0xF9 0xC5 0xB2 SWAP4 PUSH5 0x736F6C6343 STOP ADDMOD EQ STOP CALLER "},"methodIdentifiers":{"certifyInfringement(string,bytes32)":"0d5b1704","getInfringement(bytes32)":"a4e47a26","getWork(bytes32)":"30266537","isWorkRegistered(bytes32)":"5b421e1a","owner()":"8da5cb5b","registerWork(bytes32,string,address[],uint256[])":"799b1bd2","simulateRoyaltyPayment(bytes32,uint256)":"95a022cd"}}}}}